{
  "contractName": "Auction",
  "abi": [
    {
      "constant": true,
      "inputs": [],
      "name": "rule",
      "outputs": [
        {
          "name": "startingPrice",
          "type": "uint8"
        },
        {
          "name": "minimumStep",
          "type": "uint8"
        }
      ],
      "payable": false,
      "stateMutability": "view",
      "type": "function"
    },
    {
      "constant": true,
      "inputs": [],
      "name": "auctioneer",
      "outputs": [
        {
          "name": "",
          "type": "address"
        }
      ],
      "payable": false,
      "stateMutability": "view",
      "type": "function"
    },
    {
      "constant": true,
      "inputs": [],
      "name": "currentPrice",
      "outputs": [
        {
          "name": "",
          "type": "uint8"
        }
      ],
      "payable": false,
      "stateMutability": "view",
      "type": "function"
    },
    {
      "constant": true,
      "inputs": [],
      "name": "currentWinner",
      "outputs": [
        {
          "name": "",
          "type": "address"
        }
      ],
      "payable": false,
      "stateMutability": "view",
      "type": "function"
    },
    {
      "constant": true,
      "inputs": [],
      "name": "state",
      "outputs": [
        {
          "name": "",
          "type": "uint8"
        }
      ],
      "payable": false,
      "stateMutability": "view",
      "type": "function"
    },
    {
      "constant": true,
      "inputs": [],
      "name": "announcementTimes",
      "outputs": [
        {
          "name": "",
          "type": "uint8"
        }
      ],
      "payable": false,
      "stateMutability": "view",
      "type": "function"
    },
    {
      "constant": true,
      "inputs": [
        {
          "name": "",
          "type": "address"
        }
      ],
      "name": "bidders",
      "outputs": [
        {
          "name": "token",
          "type": "uint8"
        },
        {
          "name": "deposit",
          "type": "uint8"
        }
      ],
      "payable": false,
      "stateMutability": "view",
      "type": "function"
    },
    {
      "inputs": [
        {
          "name": "_startingPrice",
          "type": "uint8"
        },
        {
          "name": "_minimumStep",
          "type": "uint8"
        }
      ],
      "payable": false,
      "stateMutability": "nonpayable",
      "type": "constructor"
    },
    {
      "constant": false,
      "inputs": [
        {
          "name": "_account",
          "type": "address"
        },
        {
          "name": "_token",
          "type": "uint8"
        }
      ],
      "name": "register",
      "outputs": [],
      "payable": false,
      "stateMutability": "nonpayable",
      "type": "function"
    },
    {
      "constant": false,
      "inputs": [],
      "name": "startSession",
      "outputs": [],
      "payable": false,
      "stateMutability": "nonpayable",
      "type": "function"
    },
    {
      "constant": false,
      "inputs": [
        {
          "name": "_price",
          "type": "uint8"
        }
      ],
      "name": "bid",
      "outputs": [],
      "payable": false,
      "stateMutability": "nonpayable",
      "type": "function"
    },
    {
      "constant": false,
      "inputs": [],
      "name": "announce",
      "outputs": [],
      "payable": false,
      "stateMutability": "nonpayable",
      "type": "function"
    },
    {
      "constant": false,
      "inputs": [],
      "name": "getDeposit",
      "outputs": [],
      "payable": false,
      "stateMutability": "nonpayable",
      "type": "function"
    }
  ],
  "bytecode": "0x606060405260008060006101000a81548160ff0219169083600381111561002257fe5b021790555060008060016101000a81548160ff021916908360ff16021790555060008060026101000a81548160ff021916908360ff1602179055506000600360146101000a81548161ffff021916908361ffff160217905550341561008657600080fd5b604051604080610bf18339810160405280805190602001909190805190602001909190505033600360006101000a81548173ffffffffffffffffffffffffffffffffffffffff021916908373ffffffffffffffffffffffffffffffffffffffff16021790555081600160000160006101000a81548160ff021916908360ff16021790555080600160000160016101000a81548160ff021916908360ff16021790555081600060026101000a81548160ff021916908360ff1602179055505050610a9d806101546000396000f300606060405236156100b8576000357c0100000000000000000000000000000000000000000000000000000000900463ffffffff16806307e49598146100bd57806325e3d5221461010257806333500e261461013e5780635ec2c7bf146101645780638f970df0146101b95780639d1b464a146101ce578063aabe2fe3146101fd578063c19d93fb14610252578063c399ec8814610289578063e4f8c1b61461029e578063fcc8f793146102cd578063fe0ae1651461032d575b600080fd5b34156100c857600080fd5b610100600480803573ffffffffffffffffffffffffffffffffffffffff1690602001909190803560ff16906020019091905050610342565b005b341561010d57600080fd5b610115610455565b604051808360ff1660ff1681526020018260ff1660ff1681526020019250505060405180910390f35b341561014957600080fd5b610162600480803560ff16906020019091905050610481565b005b341561016f57600080fd5b610177610679565b604051808273ffffffffffffffffffffffffffffffffffffffff1673ffffffffffffffffffffffffffffffffffffffff16815260200191505060405180910390f35b34156101c457600080fd5b6101cc61069f565b005b34156101d957600080fd5b6101e16107a4565b604051808260ff1660ff16815260200191505060405180910390f35b341561020857600080fd5b6102106107b7565b604051808273ffffffffffffffffffffffffffffffffffffffff1673ffffffffffffffffffffffffffffffffffffffff16815260200191505060405180910390f35b341561025d57600080fd5b6102656107dd565b6040518082600381111561027557fe5b60ff16815260200191505060405180910390f35b341561029457600080fd5b61029c6107ef565b005b34156102a957600080fd5b6102b161096a565b604051808260ff1660ff16815260200191505060405180910390f35b34156102d857600080fd5b610304600480803573ffffffffffffffffffffffffffffffffffffffff1690602001909190505061097d565b604051808360ff1660ff1681526020018260ff1660ff1681526020019250505060405180910390f35b341561033857600080fd5b6103406109bb565b005b60008080600381111561035157fe5b6000809054906101000a900460ff16600381111561036b57fe5b14151561037757600080fd5b600360009054906101000a900473ffffffffffffffffffffffffffffffffffffffff1673ffffffffffffffffffffffffffffffffffffffff163373ffffffffffffffffffffffffffffffffffffffff161415156103d357600080fd5b600460008573ffffffffffffffffffffffffffffffffffffffff1673ffffffffffffffffffffffffffffffffffffffff1681526020019081526020016000209150828260000160006101000a81548160ff021916908360ff16021790555060008260000160016101000a81548160ff021916908360ff16021790555050505050565b60018060000160009054906101000a900460ff16908060000160019054906101000a900460ff16905082565b600080600180600381111561049257fe5b6000809054906101000a900460ff1660038111156104ac57fe5b1415156104b857600080fd5b339250600460008473ffffffffffffffffffffffffffffffffffffffff1673ffffffffffffffffffffffffffffffffffffffff1681526020019081526020016000209150600160000160019054906101000a900460ff16600060029054906101000a900460ff160160ff168460ff16101561053257600080fd5b8160000160019054906101000a900460ff168260000160009054906101000a900460ff160160ff168460ff16111561056957600080fd5b838260000160019054906101000a900460ff168360000160009054906101000a900460ff1601038260000160006101000a81548160ff021916908360ff160217905550838260000160016101000a81548160ff021916908360ff1602179055508360ff16600360148282829054906101000a900461ffff160192506101000a81548161ffff021916908361ffff16021790555083600060026101000a81548160ff021916908360ff16021790555082600260006101000a81548173ffffffffffffffffffffffffffffffffffffffff021916908373ffffffffffffffffffffffffffffffffffffffff16021790555060008060016101000a81548160ff021916908360ff16021790555050505050565b600360009054906101000a900473ffffffffffffffffffffffffffffffffffffffff1681565b60018060038111156106ad57fe5b6000809054906101000a900460ff1660038111156106c757fe5b1415156106d357600080fd5b600360009054906101000a900473ffffffffffffffffffffffffffffffffffffffff1673ffffffffffffffffffffffffffffffffffffffff163373ffffffffffffffffffffffffffffffffffffffff1614151561072f57600080fd5b6003600060019054906101000a900460ff1660ff16101561077d576001600060018282829054906101000a900460ff160192506101000a81548160ff021916908360ff1602179055506107a1565b60026000806101000a81548160ff0219169083600381111561079b57fe5b02179055505b50565b600060029054906101000a900460ff1681565b600260009054906101000a900473ffffffffffffffffffffffffffffffffffffffff1681565b6000809054906101000a900460ff1681565b600080600280600381111561080057fe5b6000809054906101000a900460ff16600381111561081a57fe5b14151561082657600080fd5b339250600260009054906101000a900473ffffffffffffffffffffffffffffffffffffffff1673ffffffffffffffffffffffffffffffffffffffff168373ffffffffffffffffffffffffffffffffffffffff16141561088457600080fd5b600460008473ffffffffffffffffffffffffffffffffffffffff1673ffffffffffffffffffffffffffffffffffffffff16815260200190815260200160002091508160000160019054906101000a900460ff168260000160008282829054906101000a900460ff160192506101000a81548160ff021916908360ff16021790555060008260000160016101000a81548160ff021916908360ff1602179055506000600360149054906101000a900461ffff1661ffff161115156109655760036000806101000a81548160ff0219169083600381111561095f57fe5b02179055505b505050565b600060019054906101000a900460ff1681565b60046020528060005260406000206000915090508060000160009054906101000a900460ff16908060000160019054906101000a900460ff16905082565b60008060038111156109c957fe5b6000809054906101000a900460ff1660038111156109e357fe5b1415156109ef57600080fd5b600360009054906101000a900473ffffffffffffffffffffffffffffffffffffffff1673ffffffffffffffffffffffffffffffffffffffff163373ffffffffffffffffffffffffffffffffffffffff16141515610a4b57600080fd5b60016000806101000a81548160ff02191690836003811115610a6957fe5b0217905550505600a165627a7a723058202bc2db5b9e995f1028e0fe1e81782d42f585d6dc9e28a5061e72cb727b33ea5c0029",
  "source": "pragma solidity ^0.4.17;\n\ncontract Auction {\n    // Data\n\n    // Structure to hold details of Bidder\n    struct IBidder {\n        uint8 token;\n        uint8 deposit;\n    }\n\n    // Structure to hold details of Rule\n    struct IRule {\n        uint8 startingPrice;\n        uint8 minimumStep;\n    }\n\n    // State Enum to define Auction's state\n    enum State {\n        CREATED,\n        STARTED,\n        CLOSING,\n        CLOSED\n    }\n\n    State public state = State.CREATED; // State of Auction\n\n    uint8 public announcementTimes = 0; // Number of announcements\n    uint8 public currentPrice = 0; // Latest price is bid.\n    IRule public rule; // Rule of this session\n    address public currentWinner; // Current Winner, who bid the highest price.\n    address public auctioneer;\n\n    uint16 private totalDeposit = 0;\n\n    mapping(address => IBidder) public bidders; // Mapping to hold bidders' information\n\n    function Auction(uint8 _startingPrice, uint8 _minimumStep) public {\n        // Task #1 - Initialize the Smart contract\n        // + Initialize Auctioneer with address of smart contract's owner\n        // + Set the starting price & minimumStep\n        // + Set the current price as the Starting price\n\n        // ** Start code here. 4 lines approximately. ** /\n        auctioneer = msg.sender;\n        rule.startingPrice = _startingPrice;\n        rule.minimumStep = _minimumStep;\n        currentPrice = _startingPrice;\n        // ** End code here. ** /\n    }\n\n    // Register new Bidder\n    function register(address _account, uint8 _token)\n        public\n        validState(State.CREATED)\n        onlyAuctioneer\n    {\n        // Task #2 - Register the bidder\n        // + Initialize a Bidder with address and token are given.\n        // + Initialize a Bidder's deposit with 0\n\n        // ** Start code here. 3 lines approximately. ** /\n        IBidder storage currentBidder = bidders[_account];\n        currentBidder.token = _token;\n        currentBidder.deposit = 0;\n        // ** End code here. **/\n    }\n\n    // Start the session.\n    function startSession() public validState(State.CREATED) onlyAuctioneer {\n        state = State.STARTED;\n    }\n\n    function bid(uint8 _price) public validState(State.STARTED) {\n        // Task #3 - Bid by Bidders\n        // + Check the price with currentPirce and minimumStep. Revert if invalid.\n        // + Check if the Bidder has enough token to bid. Revert if invalid.\n        // + Move token to Deposit.\n\n        address bidderAddr = msg.sender;\n        IBidder storage currentBidder = bidders[bidderAddr];\n\n        // ** Start code here.  ** /\n        // Các bidder đặt giá thầu\n        // Nếu giá đấu thầu nhỏ hơn giá mới nhất (hiện tại) + bước tối thiếu\n        if (_price < currentPrice + rule.minimumStep) revert();\n\n        // Nếu giá đấu thầu lớn hơn số token hiện có của bidder + số token đã đặt cọc\n        if (_price > currentBidder.token + currentBidder.deposit) revert();\n\n        // Sau khi đấu xong nếu trúng thầu thì lượng token còn lại của bidder\n        // sẽ = tổng lượng token hiện tại + lượng token đã đặt cọc - giá đấu thầu\n        currentBidder.token =\n            currentBidder.token +\n            currentBidder.deposit -\n            _price;\n\n        // Chuyển token sang đặt cọc (deposit)\n        currentBidder.deposit = _price;\n\n        // Tracking deposit\n        totalDeposit += _price;\n        // ** End code here. **/\n\n        // Update the price and the winner after this bid.\n        currentPrice = _price;\n        currentWinner = bidderAddr;\n\n        // Reset the Annoucements Counter\n        announcementTimes = 0;\n    }\n\n    function announce() public validState(State.STARTED) onlyAuctioneer {\n        // Task #4 - Handle announcement.\n        // + When Auctioneer annouce, increase the counter.\n        // + When Auctioneer annouced more than 3 times, switch session to Closing state.\n\n        // ** Start code here.  ** /\n        if (announcementTimes < 3) {\n            announcementTimes += 1;\n        } else {\n            state = State.CLOSING;\n        }\n\n        // ** End code here. **/\n    }\n\n    function getDeposit() public validState(State.CLOSING) {\n        // Task #5 - Handle get Deposit.\n        // + Allow bidders (except Winner) to withdraw their deposit\n        // + When all bidders' deposit are withdrew, close the session\n\n        // ** Start code here.  ** /\n        // HINT: Remember to decrease totalDeposit.\n        address bidderAddr = msg.sender;\n        if (bidderAddr == currentWinner) revert();\n\n        IBidder storage currentBidder = bidders[bidderAddr];\n\n        // Số lượng token hiện tại cộng thêm số lượng token đã đặt cọc để thu hồi lại\n        currentBidder.token += currentBidder.deposit;\n        currentBidder.deposit = 0;\n        // ** End code here ** /\n\n        if (totalDeposit <= 0) {\n            state = State.CLOSED;\n        }\n    }\n\n    // PART 2 - Using Modifier to:\n    // - Check if the action (startSession, register, bid, annoucement, getDeposit) can be done in current State.\n    // - Check if the current user can do the action.\n\n    modifier validState(State stateRequest) {\n        require(state == stateRequest);\n        _;\n    }\n\n    modifier onlyAuctioneer() {\n        require(msg.sender == auctioneer);\n        _;\n    }\n}\n",
  "sourcePath": "/Users/phucho/Documents/Funix/Practice/BDP303x/Auction_England_Asm3/contracts/Auction.sol",
  "compiler": {
    "name": "solc",
    "version": "0.4.17+commit.bdeb9e52.Emscripten.clang"
  },
  "schemaVersion": "3.4.7",
  "updatedAt": "2022-06-30T00:14:31.607Z",
  "networkType": "ethereum",
  "devdoc": {
    "methods": {}
  },
  "userdoc": {
    "methods": {}
  }
}